{
  "_format": "hh-sol-artifact-1",
  "contractName": "ENSNameResolver",
  "sourceName": "contracts/ENSNameResolver.sol",
  "abi": [
    {
      "inputs": [
        {
          "internalType": "address",
          "name": "_address",
          "type": "address"
        }
      ],
      "name": "lookupENSName",
      "outputs": [
        {
          "internalType": "string",
          "name": "",
          "type": "string"
        }
      ],
      "stateMutability": "view",
      "type": "function"
    },
    {
      "inputs": [
        {
          "internalType": "address",
          "name": "_registrar",
          "type": "address"
        },
        {
          "internalType": "address",
          "name": "_address",
          "type": "address"
        }
      ],
      "name": "tryLookupENSName",
      "outputs": [
        {
          "internalType": "string",
          "name": "",
          "type": "string"
        }
      ],
      "stateMutability": "view",
      "type": "function"
    }
  ],
  "bytecode": "0x61070e610053600b82828239805160001a607314610046577f4e487b7100000000000000000000000000000000000000000000000000000000600052600060045260246000fd5b30600052607381538281f3fe73000000000000000000000000000000000000000030146080604052600436106100405760003560e01c80637d38f23b14610045578063b1acf79a14610075575b600080fd5b61005f600480360381019061005a9190610388565b6100a5565b60405161006c919061050d565b60405180910390f35b61008f600480360381019061008a91906103b1565b610109565b60405161009c919061050d565b60405180910390f35b6060600073084b1c3c81545d370f3634392de611caabff814890506000739062c0a6dbd6108336bcbe4593a3d1ce05512069905060006100e58386610109565b90506000815114156100fe576100fb8286610109565b90505b809350505050919050565b60606000833b905060008163ffffffff16141561013857604051806020016040528060008152509150506102db565b600084905060008173ffffffffffffffffffffffffffffffffffffffff1663bffbe61c866040518263ffffffff1660e01b815260040161017891906104d7565b60206040518083038186803b15801561019057600080fd5b505afa1580156101a4573d6000803e3d6000fd5b505050506040513d601f19601f820116820180604052508101906101c891906103ed565b90508173ffffffffffffffffffffffffffffffffffffffff1663828eab0e6040518163ffffffff1660e01b815260040160206040518083038186803b15801561021057600080fd5b505afa158015610224573d6000803e3d6000fd5b505050506040513d601f19601f820116820180604052508101906102489190610416565b73ffffffffffffffffffffffffffffffffffffffff1663691f3431826040518263ffffffff1660e01b815260040161028091906104f2565b60006040518083038186803b15801561029857600080fd5b505afa1580156102ac573d6000803e3d6000fd5b505050506040513d6000823e3d601f19601f820116820180604052508101906102d5919061043f565b93505050505b92915050565b60006102f46102ef84610554565b61052f565b90508281526020810184848401111561030c57600080fd5b6103178482856105ef565b509392505050565b60008135905061032e81610693565b92915050565b600081519050610343816106aa565b92915050565b600081519050610358816106c1565b92915050565b600082601f83011261036f57600080fd5b815161037f8482602086016102e1565b91505092915050565b60006020828403121561039a57600080fd5b60006103a88482850161031f565b91505092915050565b600080604083850312156103c457600080fd5b60006103d28582860161031f565b92505060206103e38582860161031f565b9150509250929050565b6000602082840312156103ff57600080fd5b600061040d84828501610334565b91505092915050565b60006020828403121561042857600080fd5b600061043684828501610349565b91505092915050565b60006020828403121561045157600080fd5b600082015167ffffffffffffffff81111561046b57600080fd5b6104778482850161035e565b91505092915050565b610489816105a1565b82525050565b610498816105b3565b82525050565b60006104a982610585565b6104b38185610590565b93506104c38185602086016105ef565b6104cc81610682565b840191505092915050565b60006020820190506104ec6000830184610480565b92915050565b6000602082019050610507600083018461048f565b92915050565b60006020820190508181036000830152610527818461049e565b905092915050565b600061053961054a565b90506105458282610622565b919050565b6000604051905090565b600067ffffffffffffffff82111561056f5761056e610653565b5b61057882610682565b9050602081019050919050565b600081519050919050565b600082825260208201905092915050565b60006105ac826105cf565b9050919050565b6000819050919050565b60006105c8826105a1565b9050919050565b600073ffffffffffffffffffffffffffffffffffffffff82169050919050565b60005b8381101561060d5780820151818401526020810190506105f2565b8381111561061c576000848401525b50505050565b61062b82610682565b810181811067ffffffffffffffff8211171561064a57610649610653565b5b80604052505050565b7f4e487b7100000000000000000000000000000000000000000000000000000000600052604160045260246000fd5b6000601f19601f8301169050919050565b61069c816105a1565b81146106a757600080fd5b50565b6106b3816105b3565b81146106be57600080fd5b50565b6106ca816105bd565b81146106d557600080fd5b5056fea2646970667358221220650f2235723a7ee69a98eb8d7a3a3330e4790751da71d0f1d8584de4a98d466e64736f6c63430008040033",
  "linkReferences": {},
  "deployedLinkReferences": {}
}