{
  "_format": "hh-sol-artifact-1",
  "contractName": "StringUtils",
  "sourceName": "contracts/StringUtils.sol",
  "abi": [
    {
      "inputs": [
        {
          "internalType": "bytes1",
          "name": "b",
          "type": "bytes1"
        }
      ],
      "name": "char",
      "outputs": [
        {
          "internalType": "bytes1",
          "name": "c",
          "type": "bytes1"
        }
      ],
      "stateMutability": "pure",
      "type": "function"
    },
    {
      "inputs": [
        {
          "internalType": "bytes",
          "name": "s",
          "type": "bytes"
        }
      ],
      "name": "strlen",
      "outputs": [
        {
          "internalType": "uint256",
          "name": "",
          "type": "uint256"
        }
      ],
      "stateMutability": "pure",
      "type": "function"
    },
    {
      "inputs": [
        {
          "internalType": "address",
          "name": "x",
          "type": "address"
        }
      ],
      "name": "toAsciiString",
      "outputs": [
        {
          "internalType": "string",
          "name": "",
          "type": "string"
        }
      ],
      "stateMutability": "pure",
      "type": "function"
    }
  ],
  "bytecode": "0x610d19610053600b82828239805160001a607314610046577f4e487b7100000000000000000000000000000000000000000000000000000000600052600060045260246000fd5b30600052607381538281f3fe730000000000000000000000000000000000000000301460806040526004361061004b5760003560e01c80632c6e759814610050578063341d51611461008057806369f9ad2f146100b0575b600080fd5b61006a600480360381019061006591906105c8565b6100e0565b60405161007791906106cd565b60405180910390f35b61009a6004803603810190610095919061061a565b610315565b6040516100a791906106ef565b60405180910390f35b6100ca60048036038101906100c591906105f1565b6104f0565b6040516100d791906106b2565b60405180910390f35b60606000602867ffffffffffffffff811115610125577f4e487b7100000000000000000000000000000000000000000000000000000000600052604160045260246000fd5b6040519080825280601f01601f1916602001820160405280156101575781602001600182028036833780820191505090505b50905060005b601481101561030b5760008160136101759190610a71565b600861018191906109dc565b600261018d91906108be565b8573ffffffffffffffffffffffffffffffffffffffff166101ae9190610809565b60f81b9050600060108260f81c6101c5919061083a565b60f81b905060008160f81c60106101dc9190610a36565b8360f81c6101ea9190610aa5565b60f81b90506101f8826104f0565b8585600261020691906109dc565b8151811061023d577f4e487b7100000000000000000000000000000000000000000000000000000000600052603260045260246000fd5b60200101907effffffffffffffffffffffffffffffffffffffffffffffffffffffffffffff1916908160001a905350610275816104f0565b85600186600261028591906109dc565b61028f919061077c565b815181106102c6577f4e487b7100000000000000000000000000000000000000000000000000000000600052603260045260246000fd5b60200101907effffffffffffffffffffffffffffffffffffffffffffffffffffffffffffff1916908160001a905350505050808061030390610bc1565b91505061015d565b5080915050919050565b60008060008084519050600092505b808210156104e5576000858381518110610367577f4e487b7100000000000000000000000000000000000000000000000000000000600052603260045260246000fd5b602001015160f81c60f81b9050608060f81b817effffffffffffffffffffffffffffffffffffffffffffffffffffffffffffff191610156103b6576001836103af919061077c565b92506104d1565b60e060f81b817effffffffffffffffffffffffffffffffffffffffffffffffffffffffffffff191610156103f8576002836103f1919061077c565b92506104d0565b60f060f81b817effffffffffffffffffffffffffffffffffffffffffffffffffffffffffffff1916101561043a57600383610433919061077c565b92506104cf565b60f8801b817effffffffffffffffffffffffffffffffffffffffffffffffffffffffffffff1916101561047b57600483610474919061077c565b92506104ce565b60fc60f81b817effffffffffffffffffffffffffffffffffffffffffffffffffffffffffffff191610156104bd576005836104b6919061077c565b92506104cd565b6006836104ca919061077c565b92505b5b5b5b5b5082806104dd90610bc1565b935050610324565b829350505050919050565b6000600a8260f81c60ff16101561051b5760308260f81c61051191906107d2565b60f81b9050610531565b60578260f81c61052b91906107d2565b60f81b90505b919050565b60006105496105448461072f565b61070a565b90508281526020810184848401111561056157600080fd5b61056c848285610b4e565b509392505050565b60008135905061058381610cb5565b92915050565b60008135905061059881610ccc565b92915050565b600082601f8301126105af57600080fd5b81356105bf848260208601610536565b91505092915050565b6000602082840312156105da57600080fd5b60006105e884828501610574565b91505092915050565b60006020828403121561060357600080fd5b600061061184828501610589565b91505092915050565b60006020828403121561062c57600080fd5b600082013567ffffffffffffffff81111561064657600080fd5b6106528482850161059e565b91505092915050565b61066481610aeb565b82525050565b600061067582610760565b61067f818561076b565b935061068f818560208601610b5d565b61069881610c97565b840191505092915050565b6106ac81610b37565b82525050565b60006020820190506106c7600083018461065b565b92915050565b600060208201905081810360008301526106e7818461066a565b905092915050565b600060208201905061070460008301846106a3565b92915050565b6000610714610725565b90506107208282610b90565b919050565b6000604051905090565b600067ffffffffffffffff82111561074a57610749610c68565b5b61075382610c97565b9050602081019050919050565b600081519050919050565b600082825260208201905092915050565b600061078782610b37565b915061079283610b37565b9250827fffffffffffffffffffffffffffffffffffffffffffffffffffffffffffffffff038211156107c7576107c6610c0a565b5b828201905092915050565b60006107dd82610b41565b91506107e883610b41565b92508260ff038211156107fe576107fd610c0a565b5b828201905092915050565b600061081482610b37565b915061081f83610b37565b92508261082f5761082e610c39565b5b828204905092915050565b600061084582610b41565b915061085083610b41565b9250826108605761085f610c39565b5b828204905092915050565b6000808291508390505b60018511156108b55780860481111561089157610890610c0a565b5b60018516156108a05780820291505b80810290506108ae85610ca8565b9450610875565b94509492505050565b60006108c982610b37565b91506108d483610b37565b92506109017fffffffffffffffffffffffffffffffffffffffffffffffffffffffffffffffff8484610909565b905092915050565b60008261091957600190506109d5565b8161092757600090506109d5565b816001811461093d576002811461094757610976565b60019150506109d5565b60ff84111561095957610958610c0a565b5b8360020a9150848211156109705761096f610c0a565b5b506109d5565b5060208310610133831016604e8410600b84101617156109ab5782820a9050838111156109a6576109a5610c0a565b5b6109d5565b6109b8848484600161086b565b925090508184048111156109cf576109ce610c0a565b5b81810290505b9392505050565b60006109e782610b37565b91506109f283610b37565b9250817fffffffffffffffffffffffffffffffffffffffffffffffffffffffffffffffff0483118215151615610a2b57610a2a610c0a565b5b828202905092915050565b6000610a4182610b41565b9150610a4c83610b41565b92508160ff0483118215151615610a6657610a65610c0a565b5b828202905092915050565b6000610a7c82610b37565b9150610a8783610b37565b925082821015610a9a57610a99610c0a565b5b828203905092915050565b6000610ab082610b41565b9150610abb83610b41565b925082821015610ace57610acd610c0a565b5b828203905092915050565b6000610ae482610b17565b9050919050565b60007fff0000000000000000000000000000000000000000000000000000000000000082169050919050565b600073ffffffffffffffffffffffffffffffffffffffff82169050919050565b6000819050919050565b600060ff82169050919050565b82818337600083830152505050565b60005b83811015610b7b578082015181840152602081019050610b60565b83811115610b8a576000848401525b50505050565b610b9982610c97565b810181811067ffffffffffffffff82111715610bb857610bb7610c68565b5b80604052505050565b6000610bcc82610b37565b91507fffffffffffffffffffffffffffffffffffffffffffffffffffffffffffffffff821415610bff57610bfe610c0a565b5b600182019050919050565b7f4e487b7100000000000000000000000000000000000000000000000000000000600052601160045260246000fd5b7f4e487b7100000000000000000000000000000000000000000000000000000000600052601260045260246000fd5b7f4e487b7100000000000000000000000000000000000000000000000000000000600052604160045260246000fd5b6000601f19601f8301169050919050565b60008160011c9050919050565b610cbe81610ad9565b8114610cc957600080fd5b50565b610cd581610aeb565b8114610ce057600080fd5b5056fea2646970667358221220f298ca411eb3c9c937de9b87e5aaafafbb036d13e9bc94e24119cea557c149b364736f6c63430008040033",
  "linkReferences": {},
  "deployedLinkReferences": {}
}