{"contracts/StringUtils.sol":{"StringUtils":{"abi":[{"inputs":[{"internalType":"bytes1","name":"b","type":"bytes1"}],"name":"char","outputs":[{"internalType":"bytes1","name":"c","type":"bytes1"}],"stateMutability":"pure","type":"function"},{"inputs":[{"internalType":"bytes","name":"s","type":"bytes"}],"name":"strlen","outputs":[{"internalType":"uint256","name":"","type":"uint256"}],"stateMutability":"pure","type":"function"},{"inputs":[{"internalType":"address","name":"x","type":"address"}],"name":"toAsciiString","outputs":[{"internalType":"string","name":"","type":"string"}],"stateMutability":"pure","type":"function"}],"evm":{"bytecode":{"linkReferences":{},"object":"610d19610053600b82828239805160001a607314610046577f4e487b7100000000000000000000000000000000000000000000000000000000600052600060045260246000fd5b30600052607381538281f3fe730000000000000000000000000000000000000000301460806040526004361061004b5760003560e01c80632c6e759814610050578063341d51611461008057806369f9ad2f146100b0575b600080fd5b61006a600480360381019061006591906105c8565b6100e0565b60405161007791906106cd565b60405180910390f35b61009a6004803603810190610095919061061a565b610315565b6040516100a791906106ef565b60405180910390f35b6100ca60048036038101906100c591906105f1565b6104f0565b6040516100d791906106b2565b60405180910390f35b60606000602867ffffffffffffffff811115610125577f4e487b7100000000000000000000000000000000000000000000000000000000600052604160045260246000fd5b6040519080825280601f01601f1916602001820160405280156101575781602001600182028036833780820191505090505b50905060005b601481101561030b5760008160136101759190610a71565b600861018191906109dc565b600261018d91906108be565b8573ffffffffffffffffffffffffffffffffffffffff166101ae9190610809565b60f81b9050600060108260f81c6101c5919061083a565b60f81b905060008160f81c60106101dc9190610a36565b8360f81c6101ea9190610aa5565b60f81b90506101f8826104f0565b8585600261020691906109dc565b8151811061023d577f4e487b7100000000000000000000000000000000000000000000000000000000600052603260045260246000fd5b60200101907effffffffffffffffffffffffffffffffffffffffffffffffffffffffffffff1916908160001a905350610275816104f0565b85600186600261028591906109dc565b61028f919061077c565b815181106102c6577f4e487b7100000000000000000000000000000000000000000000000000000000600052603260045260246000fd5b60200101907effffffffffffffffffffffffffffffffffffffffffffffffffffffffffffff1916908160001a905350505050808061030390610bc1565b91505061015d565b5080915050919050565b60008060008084519050600092505b808210156104e5576000858381518110610367577f4e487b7100000000000000000000000000000000000000000000000000000000600052603260045260246000fd5b602001015160f81c60f81b9050608060f81b817effffffffffffffffffffffffffffffffffffffffffffffffffffffffffffff191610156103b6576001836103af919061077c565b92506104d1565b60e060f81b817effffffffffffffffffffffffffffffffffffffffffffffffffffffffffffff191610156103f8576002836103f1919061077c565b92506104d0565b60f060f81b817effffffffffffffffffffffffffffffffffffffffffffffffffffffffffffff1916101561043a57600383610433919061077c565b92506104cf565b60f8801b817effffffffffffffffffffffffffffffffffffffffffffffffffffffffffffff1916101561047b57600483610474919061077c565b92506104ce565b60fc60f81b817effffffffffffffffffffffffffffffffffffffffffffffffffffffffffffff191610156104bd576005836104b6919061077c565b92506104cd565b6006836104ca919061077c565b92505b5b5b5b5b5082806104dd90610bc1565b935050610324565b829350505050919050565b6000600a8260f81c60ff16101561051b5760308260f81c61051191906107d2565b60f81b9050610531565b60578260f81c61052b91906107d2565b60f81b90505b919050565b60006105496105448461072f565b61070a565b90508281526020810184848401111561056157600080fd5b61056c848285610b4e565b509392505050565b60008135905061058381610cb5565b92915050565b60008135905061059881610ccc565b92915050565b600082601f8301126105af57600080fd5b81356105bf848260208601610536565b91505092915050565b6000602082840312156105da57600080fd5b60006105e884828501610574565b91505092915050565b60006020828403121561060357600080fd5b600061061184828501610589565b91505092915050565b60006020828403121561062c57600080fd5b600082013567ffffffffffffffff81111561064657600080fd5b6106528482850161059e565b91505092915050565b61066481610aeb565b82525050565b600061067582610760565b61067f818561076b565b935061068f818560208601610b5d565b61069881610c97565b840191505092915050565b6106ac81610b37565b82525050565b60006020820190506106c7600083018461065b565b92915050565b600060208201905081810360008301526106e7818461066a565b905092915050565b600060208201905061070460008301846106a3565b92915050565b6000610714610725565b90506107208282610b90565b919050565b6000604051905090565b600067ffffffffffffffff82111561074a57610749610c68565b5b61075382610c97565b9050602081019050919050565b600081519050919050565b600082825260208201905092915050565b600061078782610b37565b915061079283610b37565b9250827fffffffffffffffffffffffffffffffffffffffffffffffffffffffffffffffff038211156107c7576107c6610c0a565b5b828201905092915050565b60006107dd82610b41565b91506107e883610b41565b92508260ff038211156107fe576107fd610c0a565b5b828201905092915050565b600061081482610b37565b915061081f83610b37565b92508261082f5761082e610c39565b5b828204905092915050565b600061084582610b41565b915061085083610b41565b9250826108605761085f610c39565b5b828204905092915050565b6000808291508390505b60018511156108b55780860481111561089157610890610c0a565b5b60018516156108a05780820291505b80810290506108ae85610ca8565b9450610875565b94509492505050565b60006108c982610b37565b91506108d483610b37565b92506109017fffffffffffffffffffffffffffffffffffffffffffffffffffffffffffffffff8484610909565b905092915050565b60008261091957600190506109d5565b8161092757600090506109d5565b816001811461093d576002811461094757610976565b60019150506109d5565b60ff84111561095957610958610c0a565b5b8360020a9150848211156109705761096f610c0a565b5b506109d5565b5060208310610133831016604e8410600b84101617156109ab5782820a9050838111156109a6576109a5610c0a565b5b6109d5565b6109b8848484600161086b565b925090508184048111156109cf576109ce610c0a565b5b81810290505b9392505050565b60006109e782610b37565b91506109f283610b37565b9250817fffffffffffffffffffffffffffffffffffffffffffffffffffffffffffffffff0483118215151615610a2b57610a2a610c0a565b5b828202905092915050565b6000610a4182610b41565b9150610a4c83610b41565b92508160ff0483118215151615610a6657610a65610c0a565b5b828202905092915050565b6000610a7c82610b37565b9150610a8783610b37565b925082821015610a9a57610a99610c0a565b5b828203905092915050565b6000610ab082610b41565b9150610abb83610b41565b925082821015610ace57610acd610c0a565b5b828203905092915050565b6000610ae482610b17565b9050919050565b60007fff0000000000000000000000000000000000000000000000000000000000000082169050919050565b600073ffffffffffffffffffffffffffffffffffffffff82169050919050565b6000819050919050565b600060ff82169050919050565b82818337600083830152505050565b60005b83811015610b7b578082015181840152602081019050610b60565b83811115610b8a576000848401525b50505050565b610b9982610c97565b810181811067ffffffffffffffff82111715610bb857610bb7610c68565b5b80604052505050565b6000610bcc82610b37565b91507fffffffffffffffffffffffffffffffffffffffffffffffffffffffffffffffff821415610bff57610bfe610c0a565b5b600182019050919050565b7f4e487b7100000000000000000000000000000000000000000000000000000000600052601160045260246000fd5b7f4e487b7100000000000000000000000000000000000000000000000000000000600052601260045260246000fd5b7f4e487b7100000000000000000000000000000000000000000000000000000000600052604160045260246000fd5b6000601f19601f8301169050919050565b60008160011c9050919050565b610cbe81610ad9565b8114610cc957600080fd5b50565b610cd581610aeb565b8114610ce057600080fd5b5056fea2646970667358221220f298ca411eb3c9c937de9b87e5aaafafbb036d13e9bc94e24119cea557c149b364736f6c63430008040033","opcodes":"PUSH2 0xD19 PUSH2 0x53 PUSH1 0xB DUP3 DUP3 DUP3 CODECOPY DUP1 MLOAD PUSH1 0x0 BYTE PUSH1 0x73 EQ PUSH2 0x46 JUMPI PUSH32 0x4E487B7100000000000000000000000000000000000000000000000000000000 PUSH1 0x0 MSTORE PUSH1 0x0 PUSH1 0x4 MSTORE PUSH1 0x24 PUSH1 0x0 REVERT JUMPDEST ADDRESS PUSH1 0x0 MSTORE PUSH1 0x73 DUP2 MSTORE8 DUP3 DUP2 RETURN INVALID PUSH20 0x0 ADDRESS EQ PUSH1 0x80 PUSH1 0x40 MSTORE PUSH1 0x4 CALLDATASIZE LT PUSH2 0x4B JUMPI PUSH1 0x0 CALLDATALOAD PUSH1 0xE0 SHR DUP1 PUSH4 0x2C6E7598 EQ PUSH2 0x50 JUMPI DUP1 PUSH4 0x341D5161 EQ PUSH2 0x80 JUMPI DUP1 PUSH4 0x69F9AD2F EQ PUSH2 0xB0 JUMPI JUMPDEST PUSH1 0x0 DUP1 REVERT JUMPDEST PUSH2 0x6A PUSH1 0x4 DUP1 CALLDATASIZE SUB DUP2 ADD SWAP1 PUSH2 0x65 SWAP2 SWAP1 PUSH2 0x5C8 JUMP JUMPDEST PUSH2 0xE0 JUMP JUMPDEST PUSH1 0x40 MLOAD PUSH2 0x77 SWAP2 SWAP1 PUSH2 0x6CD JUMP JUMPDEST PUSH1 0x40 MLOAD DUP1 SWAP2 SUB SWAP1 RETURN JUMPDEST PUSH2 0x9A PUSH1 0x4 DUP1 CALLDATASIZE SUB DUP2 ADD SWAP1 PUSH2 0x95 SWAP2 SWAP1 PUSH2 0x61A JUMP JUMPDEST PUSH2 0x315 JUMP JUMPDEST PUSH1 0x40 MLOAD PUSH2 0xA7 SWAP2 SWAP1 PUSH2 0x6EF JUMP JUMPDEST PUSH1 0x40 MLOAD DUP1 SWAP2 SUB SWAP1 RETURN JUMPDEST PUSH2 0xCA PUSH1 0x4 DUP1 CALLDATASIZE SUB DUP2 ADD SWAP1 PUSH2 0xC5 SWAP2 SWAP1 PUSH2 0x5F1 JUMP JUMPDEST PUSH2 0x4F0 JUMP JUMPDEST PUSH1 0x40 MLOAD PUSH2 0xD7 SWAP2 SWAP1 PUSH2 0x6B2 JUMP JUMPDEST PUSH1 0x40 MLOAD DUP1 SWAP2 SUB SWAP1 RETURN JUMPDEST PUSH1 0x60 PUSH1 0x0 PUSH1 0x28 PUSH8 0xFFFFFFFFFFFFFFFF DUP2 GT ISZERO PUSH2 0x125 JUMPI PUSH32 0x4E487B7100000000000000000000000000000000000000000000000000000000 PUSH1 0x0 MSTORE PUSH1 0x41 PUSH1 0x4 MSTORE PUSH1 0x24 PUSH1 0x0 REVERT JUMPDEST PUSH1 0x40 MLOAD SWAP1 DUP1 DUP3 MSTORE DUP1 PUSH1 0x1F ADD PUSH1 0x1F NOT AND PUSH1 0x20 ADD DUP3 ADD PUSH1 0x40 MSTORE DUP1 ISZERO PUSH2 0x157 JUMPI DUP2 PUSH1 0x20 ADD PUSH1 0x1 DUP3 MUL DUP1 CALLDATASIZE DUP4 CALLDATACOPY DUP1 DUP3 ADD SWAP2 POP POP SWAP1 POP JUMPDEST POP SWAP1 POP PUSH1 0x0 JUMPDEST PUSH1 0x14 DUP2 LT ISZERO PUSH2 0x30B JUMPI PUSH1 0x0 DUP2 PUSH1 0x13 PUSH2 0x175 SWAP2 SWAP1 PUSH2 0xA71 JUMP JUMPDEST PUSH1 0x8 PUSH2 0x181 SWAP2 SWAP1 PUSH2 0x9DC JUMP JUMPDEST PUSH1 0x2 PUSH2 0x18D SWAP2 SWAP1 PUSH2 0x8BE JUMP JUMPDEST DUP6 PUSH20 0xFFFFFFFFFFFFFFFFFFFFFFFFFFFFFFFFFFFFFFFF AND PUSH2 0x1AE SWAP2 SWAP1 PUSH2 0x809 JUMP JUMPDEST PUSH1 0xF8 SHL SWAP1 POP PUSH1 0x0 PUSH1 0x10 DUP3 PUSH1 0xF8 SHR PUSH2 0x1C5 SWAP2 SWAP1 PUSH2 0x83A JUMP JUMPDEST PUSH1 0xF8 SHL SWAP1 POP PUSH1 0x0 DUP2 PUSH1 0xF8 SHR PUSH1 0x10 PUSH2 0x1DC SWAP2 SWAP1 PUSH2 0xA36 JUMP JUMPDEST DUP4 PUSH1 0xF8 SHR PUSH2 0x1EA SWAP2 SWAP1 PUSH2 0xAA5 JUMP JUMPDEST PUSH1 0xF8 SHL SWAP1 POP PUSH2 0x1F8 DUP3 PUSH2 0x4F0 JUMP JUMPDEST DUP6 DUP6 PUSH1 0x2 PUSH2 0x206 SWAP2 SWAP1 PUSH2 0x9DC JUMP JUMPDEST DUP2 MLOAD DUP2 LT PUSH2 0x23D JUMPI PUSH32 0x4E487B7100000000000000000000000000000000000000000000000000000000 PUSH1 0x0 MSTORE PUSH1 0x32 PUSH1 0x4 MSTORE PUSH1 0x24 PUSH1 0x0 REVERT JUMPDEST PUSH1 0x20 ADD ADD SWAP1 PUSH31 0xFFFFFFFFFFFFFFFFFFFFFFFFFFFFFFFFFFFFFFFFFFFFFFFFFFFFFFFFFFFFFF NOT AND SWAP1 DUP2 PUSH1 0x0 BYTE SWAP1 MSTORE8 POP PUSH2 0x275 DUP2 PUSH2 0x4F0 JUMP JUMPDEST DUP6 PUSH1 0x1 DUP7 PUSH1 0x2 PUSH2 0x285 SWAP2 SWAP1 PUSH2 0x9DC JUMP JUMPDEST PUSH2 0x28F SWAP2 SWAP1 PUSH2 0x77C JUMP JUMPDEST DUP2 MLOAD DUP2 LT PUSH2 0x2C6 JUMPI PUSH32 0x4E487B7100000000000000000000000000000000000000000000000000000000 PUSH1 0x0 MSTORE PUSH1 0x32 PUSH1 0x4 MSTORE PUSH1 0x24 PUSH1 0x0 REVERT JUMPDEST PUSH1 0x20 ADD ADD SWAP1 PUSH31 0xFFFFFFFFFFFFFFFFFFFFFFFFFFFFFFFFFFFFFFFFFFFFFFFFFFFFFFFFFFFFFF NOT AND SWAP1 DUP2 PUSH1 0x0 BYTE SWAP1 MSTORE8 POP POP POP POP DUP1 DUP1 PUSH2 0x303 SWAP1 PUSH2 0xBC1 JUMP JUMPDEST SWAP2 POP POP PUSH2 0x15D JUMP JUMPDEST POP DUP1 SWAP2 POP POP SWAP2 SWAP1 POP JUMP JUMPDEST PUSH1 0x0 DUP1 PUSH1 0x0 DUP1 DUP5 MLOAD SWAP1 POP PUSH1 0x0 SWAP3 POP JUMPDEST DUP1 DUP3 LT ISZERO PUSH2 0x4E5 JUMPI PUSH1 0x0 DUP6 DUP4 DUP2 MLOAD DUP2 LT PUSH2 0x367 JUMPI PUSH32 0x4E487B7100000000000000000000000000000000000000000000000000000000 PUSH1 0x0 MSTORE PUSH1 0x32 PUSH1 0x4 MSTORE PUSH1 0x24 PUSH1 0x0 REVERT JUMPDEST PUSH1 0x20 ADD ADD MLOAD PUSH1 0xF8 SHR PUSH1 0xF8 SHL SWAP1 POP PUSH1 0x80 PUSH1 0xF8 SHL DUP2 PUSH31 0xFFFFFFFFFFFFFFFFFFFFFFFFFFFFFFFFFFFFFFFFFFFFFFFFFFFFFFFFFFFFFF NOT AND LT ISZERO PUSH2 0x3B6 JUMPI PUSH1 0x1 DUP4 PUSH2 0x3AF SWAP2 SWAP1 PUSH2 0x77C JUMP JUMPDEST SWAP3 POP PUSH2 0x4D1 JUMP JUMPDEST PUSH1 0xE0 PUSH1 0xF8 SHL DUP2 PUSH31 0xFFFFFFFFFFFFFFFFFFFFFFFFFFFFFFFFFFFFFFFFFFFFFFFFFFFFFFFFFFFFFF NOT AND LT ISZERO PUSH2 0x3F8 JUMPI PUSH1 0x2 DUP4 PUSH2 0x3F1 SWAP2 SWAP1 PUSH2 0x77C JUMP JUMPDEST SWAP3 POP PUSH2 0x4D0 JUMP JUMPDEST PUSH1 0xF0 PUSH1 0xF8 SHL DUP2 PUSH31 0xFFFFFFFFFFFFFFFFFFFFFFFFFFFFFFFFFFFFFFFFFFFFFFFFFFFFFFFFFFFFFF NOT AND LT ISZERO PUSH2 0x43A JUMPI PUSH1 0x3 DUP4 PUSH2 0x433 SWAP2 SWAP1 PUSH2 0x77C JUMP JUMPDEST SWAP3 POP PUSH2 0x4CF JUMP JUMPDEST PUSH1 0xF8 DUP1 SHL DUP2 PUSH31 0xFFFFFFFFFFFFFFFFFFFFFFFFFFFFFFFFFFFFFFFFFFFFFFFFFFFFFFFFFFFFFF NOT AND LT ISZERO PUSH2 0x47B JUMPI PUSH1 0x4 DUP4 PUSH2 0x474 SWAP2 SWAP1 PUSH2 0x77C JUMP JUMPDEST SWAP3 POP PUSH2 0x4CE JUMP JUMPDEST PUSH1 0xFC PUSH1 0xF8 SHL DUP2 PUSH31 0xFFFFFFFFFFFFFFFFFFFFFFFFFFFFFFFFFFFFFFFFFFFFFFFFFFFFFFFFFFFFFF NOT AND LT ISZERO PUSH2 0x4BD JUMPI PUSH1 0x5 DUP4 PUSH2 0x4B6 SWAP2 SWAP1 PUSH2 0x77C JUMP JUMPDEST SWAP3 POP PUSH2 0x4CD JUMP JUMPDEST PUSH1 0x6 DUP4 PUSH2 0x4CA SWAP2 SWAP1 PUSH2 0x77C JUMP JUMPDEST SWAP3 POP JUMPDEST JUMPDEST JUMPDEST JUMPDEST JUMPDEST POP DUP3 DUP1 PUSH2 0x4DD SWAP1 PUSH2 0xBC1 JUMP JUMPDEST SWAP4 POP POP PUSH2 0x324 JUMP JUMPDEST DUP3 SWAP4 POP POP POP POP SWAP2 SWAP1 POP JUMP JUMPDEST PUSH1 0x0 PUSH1 0xA DUP3 PUSH1 0xF8 SHR PUSH1 0xFF AND LT ISZERO PUSH2 0x51B JUMPI PUSH1 0x30 DUP3 PUSH1 0xF8 SHR PUSH2 0x511 SWAP2 SWAP1 PUSH2 0x7D2 JUMP JUMPDEST PUSH1 0xF8 SHL SWAP1 POP PUSH2 0x531 JUMP JUMPDEST PUSH1 0x57 DUP3 PUSH1 0xF8 SHR PUSH2 0x52B SWAP2 SWAP1 PUSH2 0x7D2 JUMP JUMPDEST PUSH1 0xF8 SHL SWAP1 POP JUMPDEST SWAP2 SWAP1 POP JUMP JUMPDEST PUSH1 0x0 PUSH2 0x549 PUSH2 0x544 DUP5 PUSH2 0x72F JUMP JUMPDEST PUSH2 0x70A JUMP JUMPDEST SWAP1 POP DUP3 DUP2 MSTORE PUSH1 0x20 DUP2 ADD DUP5 DUP5 DUP5 ADD GT ISZERO PUSH2 0x561 JUMPI PUSH1 0x0 DUP1 REVERT JUMPDEST PUSH2 0x56C DUP5 DUP3 DUP6 PUSH2 0xB4E JUMP JUMPDEST POP SWAP4 SWAP3 POP POP POP JUMP JUMPDEST PUSH1 0x0 DUP2 CALLDATALOAD SWAP1 POP PUSH2 0x583 DUP2 PUSH2 0xCB5 JUMP JUMPDEST SWAP3 SWAP2 POP POP JUMP JUMPDEST PUSH1 0x0 DUP2 CALLDATALOAD SWAP1 POP PUSH2 0x598 DUP2 PUSH2 0xCCC JUMP JUMPDEST SWAP3 SWAP2 POP POP JUMP JUMPDEST PUSH1 0x0 DUP3 PUSH1 0x1F DUP4 ADD SLT PUSH2 0x5AF JUMPI PUSH1 0x0 DUP1 REVERT JUMPDEST DUP2 CALLDATALOAD PUSH2 0x5BF DUP5 DUP3 PUSH1 0x20 DUP7 ADD PUSH2 0x536 JUMP JUMPDEST SWAP2 POP POP SWAP3 SWAP2 POP POP JUMP JUMPDEST PUSH1 0x0 PUSH1 0x20 DUP3 DUP5 SUB SLT ISZERO PUSH2 0x5DA JUMPI PUSH1 0x0 DUP1 REVERT JUMPDEST PUSH1 0x0 PUSH2 0x5E8 DUP5 DUP3 DUP6 ADD PUSH2 0x574 JUMP JUMPDEST SWAP2 POP POP SWAP3 SWAP2 POP POP JUMP JUMPDEST PUSH1 0x0 PUSH1 0x20 DUP3 DUP5 SUB SLT ISZERO PUSH2 0x603 JUMPI PUSH1 0x0 DUP1 REVERT JUMPDEST PUSH1 0x0 PUSH2 0x611 DUP5 DUP3 DUP6 ADD PUSH2 0x589 JUMP JUMPDEST SWAP2 POP POP SWAP3 SWAP2 POP POP JUMP JUMPDEST PUSH1 0x0 PUSH1 0x20 DUP3 DUP5 SUB SLT ISZERO PUSH2 0x62C JUMPI PUSH1 0x0 DUP1 REVERT JUMPDEST PUSH1 0x0 DUP3 ADD CALLDATALOAD PUSH8 0xFFFFFFFFFFFFFFFF DUP2 GT ISZERO PUSH2 0x646 JUMPI PUSH1 0x0 DUP1 REVERT JUMPDEST PUSH2 0x652 DUP5 DUP3 DUP6 ADD PUSH2 0x59E JUMP JUMPDEST SWAP2 POP POP SWAP3 SWAP2 POP POP JUMP JUMPDEST PUSH2 0x664 DUP2 PUSH2 0xAEB JUMP JUMPDEST DUP3 MSTORE POP POP JUMP JUMPDEST PUSH1 0x0 PUSH2 0x675 DUP3 PUSH2 0x760 JUMP JUMPDEST PUSH2 0x67F DUP2 DUP6 PUSH2 0x76B JUMP JUMPDEST SWAP4 POP PUSH2 0x68F DUP2 DUP6 PUSH1 0x20 DUP7 ADD PUSH2 0xB5D JUMP JUMPDEST PUSH2 0x698 DUP2 PUSH2 0xC97 JUMP JUMPDEST DUP5 ADD SWAP2 POP POP SWAP3 SWAP2 POP POP JUMP JUMPDEST PUSH2 0x6AC DUP2 PUSH2 0xB37 JUMP JUMPDEST DUP3 MSTORE POP POP JUMP JUMPDEST PUSH1 0x0 PUSH1 0x20 DUP3 ADD SWAP1 POP PUSH2 0x6C7 PUSH1 0x0 DUP4 ADD DUP5 PUSH2 0x65B JUMP JUMPDEST SWAP3 SWAP2 POP POP JUMP JUMPDEST PUSH1 0x0 PUSH1 0x20 DUP3 ADD SWAP1 POP DUP2 DUP2 SUB PUSH1 0x0 DUP4 ADD MSTORE PUSH2 0x6E7 DUP2 DUP5 PUSH2 0x66A JUMP JUMPDEST SWAP1 POP SWAP3 SWAP2 POP POP JUMP JUMPDEST PUSH1 0x0 PUSH1 0x20 DUP3 ADD SWAP1 POP PUSH2 0x704 PUSH1 0x0 DUP4 ADD DUP5 PUSH2 0x6A3 JUMP JUMPDEST SWAP3 SWAP2 POP POP JUMP JUMPDEST PUSH1 0x0 PUSH2 0x714 PUSH2 0x725 JUMP JUMPDEST SWAP1 POP PUSH2 0x720 DUP3 DUP3 PUSH2 0xB90 JUMP JUMPDEST SWAP2 SWAP1 POP JUMP JUMPDEST PUSH1 0x0 PUSH1 0x40 MLOAD SWAP1 POP SWAP1 JUMP JUMPDEST PUSH1 0x0 PUSH8 0xFFFFFFFFFFFFFFFF DUP3 GT ISZERO PUSH2 0x74A JUMPI PUSH2 0x749 PUSH2 0xC68 JUMP JUMPDEST JUMPDEST PUSH2 0x753 DUP3 PUSH2 0xC97 JUMP JUMPDEST SWAP1 POP PUSH1 0x20 DUP2 ADD SWAP1 POP SWAP2 SWAP1 POP JUMP JUMPDEST PUSH1 0x0 DUP2 MLOAD SWAP1 POP SWAP2 SWAP1 POP JUMP JUMPDEST PUSH1 0x0 DUP3 DUP3 MSTORE PUSH1 0x20 DUP3 ADD SWAP1 POP SWAP3 SWAP2 POP POP JUMP JUMPDEST PUSH1 0x0 PUSH2 0x787 DUP3 PUSH2 0xB37 JUMP JUMPDEST SWAP2 POP PUSH2 0x792 DUP4 PUSH2 0xB37 JUMP JUMPDEST SWAP3 POP DUP3 PUSH32 0xFFFFFFFFFFFFFFFFFFFFFFFFFFFFFFFFFFFFFFFFFFFFFFFFFFFFFFFFFFFFFFFF SUB DUP3 GT ISZERO PUSH2 0x7C7 JUMPI PUSH2 0x7C6 PUSH2 0xC0A JUMP JUMPDEST JUMPDEST DUP3 DUP3 ADD SWAP1 POP SWAP3 SWAP2 POP POP JUMP JUMPDEST PUSH1 0x0 PUSH2 0x7DD DUP3 PUSH2 0xB41 JUMP JUMPDEST SWAP2 POP PUSH2 0x7E8 DUP4 PUSH2 0xB41 JUMP JUMPDEST SWAP3 POP DUP3 PUSH1 0xFF SUB DUP3 GT ISZERO PUSH2 0x7FE JUMPI PUSH2 0x7FD PUSH2 0xC0A JUMP JUMPDEST JUMPDEST DUP3 DUP3 ADD SWAP1 POP SWAP3 SWAP2 POP POP JUMP JUMPDEST PUSH1 0x0 PUSH2 0x814 DUP3 PUSH2 0xB37 JUMP JUMPDEST SWAP2 POP PUSH2 0x81F DUP4 PUSH2 0xB37 JUMP JUMPDEST SWAP3 POP DUP3 PUSH2 0x82F JUMPI PUSH2 0x82E PUSH2 0xC39 JUMP JUMPDEST JUMPDEST DUP3 DUP3 DIV SWAP1 POP SWAP3 SWAP2 POP POP JUMP JUMPDEST PUSH1 0x0 PUSH2 0x845 DUP3 PUSH2 0xB41 JUMP JUMPDEST SWAP2 POP PUSH2 0x850 DUP4 PUSH2 0xB41 JUMP JUMPDEST SWAP3 POP DUP3 PUSH2 0x860 JUMPI PUSH2 0x85F PUSH2 0xC39 JUMP JUMPDEST JUMPDEST DUP3 DUP3 DIV SWAP1 POP SWAP3 SWAP2 POP POP JUMP JUMPDEST PUSH1 0x0 DUP1 DUP3 SWAP2 POP DUP4 SWAP1 POP JUMPDEST PUSH1 0x1 DUP6 GT ISZERO PUSH2 0x8B5 JUMPI DUP1 DUP7 DIV DUP2 GT ISZERO PUSH2 0x891 JUMPI PUSH2 0x890 PUSH2 0xC0A JUMP JUMPDEST JUMPDEST PUSH1 0x1 DUP6 AND ISZERO PUSH2 0x8A0 JUMPI DUP1 DUP3 MUL SWAP2 POP JUMPDEST DUP1 DUP2 MUL SWAP1 POP PUSH2 0x8AE DUP6 PUSH2 0xCA8 JUMP JUMPDEST SWAP5 POP PUSH2 0x875 JUMP JUMPDEST SWAP5 POP SWAP5 SWAP3 POP POP POP JUMP JUMPDEST PUSH1 0x0 PUSH2 0x8C9 DUP3 PUSH2 0xB37 JUMP JUMPDEST SWAP2 POP PUSH2 0x8D4 DUP4 PUSH2 0xB37 JUMP JUMPDEST SWAP3 POP PUSH2 0x901 PUSH32 0xFFFFFFFFFFFFFFFFFFFFFFFFFFFFFFFFFFFFFFFFFFFFFFFFFFFFFFFFFFFFFFFF DUP5 DUP5 PUSH2 0x909 JUMP JUMPDEST SWAP1 POP SWAP3 SWAP2 POP POP JUMP JUMPDEST PUSH1 0x0 DUP3 PUSH2 0x919 JUMPI PUSH1 0x1 SWAP1 POP PUSH2 0x9D5 JUMP JUMPDEST DUP2 PUSH2 0x927 JUMPI PUSH1 0x0 SWAP1 POP PUSH2 0x9D5 JUMP JUMPDEST DUP2 PUSH1 0x1 DUP2 EQ PUSH2 0x93D JUMPI PUSH1 0x2 DUP2 EQ PUSH2 0x947 JUMPI PUSH2 0x976 JUMP JUMPDEST PUSH1 0x1 SWAP2 POP POP PUSH2 0x9D5 JUMP JUMPDEST PUSH1 0xFF DUP5 GT ISZERO PUSH2 0x959 JUMPI PUSH2 0x958 PUSH2 0xC0A JUMP JUMPDEST JUMPDEST DUP4 PUSH1 0x2 EXP SWAP2 POP DUP5 DUP3 GT ISZERO PUSH2 0x970 JUMPI PUSH2 0x96F PUSH2 0xC0A JUMP JUMPDEST JUMPDEST POP PUSH2 0x9D5 JUMP JUMPDEST POP PUSH1 0x20 DUP4 LT PUSH2 0x133 DUP4 LT AND PUSH1 0x4E DUP5 LT PUSH1 0xB DUP5 LT AND OR ISZERO PUSH2 0x9AB JUMPI DUP3 DUP3 EXP SWAP1 POP DUP4 DUP2 GT ISZERO PUSH2 0x9A6 JUMPI PUSH2 0x9A5 PUSH2 0xC0A JUMP JUMPDEST JUMPDEST PUSH2 0x9D5 JUMP JUMPDEST PUSH2 0x9B8 DUP5 DUP5 DUP5 PUSH1 0x1 PUSH2 0x86B JUMP JUMPDEST SWAP3 POP SWAP1 POP DUP2 DUP5 DIV DUP2 GT ISZERO PUSH2 0x9CF JUMPI PUSH2 0x9CE PUSH2 0xC0A JUMP JUMPDEST JUMPDEST DUP2 DUP2 MUL SWAP1 POP JUMPDEST SWAP4 SWAP3 POP POP POP JUMP JUMPDEST PUSH1 0x0 PUSH2 0x9E7 DUP3 PUSH2 0xB37 JUMP JUMPDEST SWAP2 POP PUSH2 0x9F2 DUP4 PUSH2 0xB37 JUMP JUMPDEST SWAP3 POP DUP2 PUSH32 0xFFFFFFFFFFFFFFFFFFFFFFFFFFFFFFFFFFFFFFFFFFFFFFFFFFFFFFFFFFFFFFFF DIV DUP4 GT DUP3 ISZERO ISZERO AND ISZERO PUSH2 0xA2B JUMPI PUSH2 0xA2A PUSH2 0xC0A JUMP JUMPDEST JUMPDEST DUP3 DUP3 MUL SWAP1 POP SWAP3 SWAP2 POP POP JUMP JUMPDEST PUSH1 0x0 PUSH2 0xA41 DUP3 PUSH2 0xB41 JUMP JUMPDEST SWAP2 POP PUSH2 0xA4C DUP4 PUSH2 0xB41 JUMP JUMPDEST SWAP3 POP DUP2 PUSH1 0xFF DIV DUP4 GT DUP3 ISZERO ISZERO AND ISZERO PUSH2 0xA66 JUMPI PUSH2 0xA65 PUSH2 0xC0A JUMP JUMPDEST JUMPDEST DUP3 DUP3 MUL SWAP1 POP SWAP3 SWAP2 POP POP JUMP JUMPDEST PUSH1 0x0 PUSH2 0xA7C DUP3 PUSH2 0xB37 JUMP JUMPDEST SWAP2 POP PUSH2 0xA87 DUP4 PUSH2 0xB37 JUMP JUMPDEST SWAP3 POP DUP3 DUP3 LT ISZERO PUSH2 0xA9A JUMPI PUSH2 0xA99 PUSH2 0xC0A JUMP JUMPDEST JUMPDEST DUP3 DUP3 SUB SWAP1 POP SWAP3 SWAP2 POP POP JUMP JUMPDEST PUSH1 0x0 PUSH2 0xAB0 DUP3 PUSH2 0xB41 JUMP JUMPDEST SWAP2 POP PUSH2 0xABB DUP4 PUSH2 0xB41 JUMP JUMPDEST SWAP3 POP DUP3 DUP3 LT ISZERO PUSH2 0xACE JUMPI PUSH2 0xACD PUSH2 0xC0A JUMP JUMPDEST JUMPDEST DUP3 DUP3 SUB SWAP1 POP SWAP3 SWAP2 POP POP JUMP JUMPDEST PUSH1 0x0 PUSH2 0xAE4 DUP3 PUSH2 0xB17 JUMP JUMPDEST SWAP1 POP SWAP2 SWAP1 POP JUMP JUMPDEST PUSH1 0x0 PUSH32 0xFF00000000000000000000000000000000000000000000000000000000000000 DUP3 AND SWAP1 POP SWAP2 SWAP1 POP JUMP JUMPDEST PUSH1 0x0 PUSH20 0xFFFFFFFFFFFFFFFFFFFFFFFFFFFFFFFFFFFFFFFF DUP3 AND SWAP1 POP SWAP2 SWAP1 POP JUMP JUMPDEST PUSH1 0x0 DUP2 SWAP1 POP SWAP2 SWAP1 POP JUMP JUMPDEST PUSH1 0x0 PUSH1 0xFF DUP3 AND SWAP1 POP SWAP2 SWAP1 POP JUMP JUMPDEST DUP3 DUP2 DUP4 CALLDATACOPY PUSH1 0x0 DUP4 DUP4 ADD MSTORE POP POP POP JUMP JUMPDEST PUSH1 0x0 JUMPDEST DUP4 DUP2 LT ISZERO PUSH2 0xB7B JUMPI DUP1 DUP3 ADD MLOAD DUP2 DUP5 ADD MSTORE PUSH1 0x20 DUP2 ADD SWAP1 POP PUSH2 0xB60 JUMP JUMPDEST DUP4 DUP2 GT ISZERO PUSH2 0xB8A JUMPI PUSH1 0x0 DUP5 DUP5 ADD MSTORE JUMPDEST POP POP POP POP JUMP JUMPDEST PUSH2 0xB99 DUP3 PUSH2 0xC97 JUMP JUMPDEST DUP2 ADD DUP2 DUP2 LT PUSH8 0xFFFFFFFFFFFFFFFF DUP3 GT OR ISZERO PUSH2 0xBB8 JUMPI PUSH2 0xBB7 PUSH2 0xC68 JUMP JUMPDEST JUMPDEST DUP1 PUSH1 0x40 MSTORE POP POP POP JUMP JUMPDEST PUSH1 0x0 PUSH2 0xBCC DUP3 PUSH2 0xB37 JUMP JUMPDEST SWAP2 POP PUSH32 0xFFFFFFFFFFFFFFFFFFFFFFFFFFFFFFFFFFFFFFFFFFFFFFFFFFFFFFFFFFFFFFFF DUP3 EQ ISZERO PUSH2 0xBFF JUMPI PUSH2 0xBFE PUSH2 0xC0A JUMP JUMPDEST JUMPDEST PUSH1 0x1 DUP3 ADD SWAP1 POP SWAP2 SWAP1 POP JUMP JUMPDEST PUSH32 0x4E487B7100000000000000000000000000000000000000000000000000000000 PUSH1 0x0 MSTORE PUSH1 0x11 PUSH1 0x4 MSTORE PUSH1 0x24 PUSH1 0x0 REVERT JUMPDEST PUSH32 0x4E487B7100000000000000000000000000000000000000000000000000000000 PUSH1 0x0 MSTORE PUSH1 0x12 PUSH1 0x4 MSTORE PUSH1 0x24 PUSH1 0x0 REVERT JUMPDEST PUSH32 0x4E487B7100000000000000000000000000000000000000000000000000000000 PUSH1 0x0 MSTORE PUSH1 0x41 PUSH1 0x4 MSTORE PUSH1 0x24 PUSH1 0x0 REVERT JUMPDEST PUSH1 0x0 PUSH1 0x1F NOT PUSH1 0x1F DUP4 ADD AND SWAP1 POP SWAP2 SWAP1 POP JUMP JUMPDEST PUSH1 0x0 DUP2 PUSH1 0x1 SHR SWAP1 POP SWAP2 SWAP1 POP JUMP JUMPDEST PUSH2 0xCBE DUP2 PUSH2 0xAD9 JUMP JUMPDEST DUP2 EQ PUSH2 0xCC9 JUMPI PUSH1 0x0 DUP1 REVERT JUMPDEST POP JUMP JUMPDEST PUSH2 0xCD5 DUP2 PUSH2 0xAEB JUMP JUMPDEST DUP2 EQ PUSH2 0xCE0 JUMPI PUSH1 0x0 DUP1 REVERT JUMPDEST POP JUMP INVALID LOG2 PUSH5 0x6970667358 0x22 SLT KECCAK256 CALLCODE SWAP9 0xCA COINBASE 0x1E 0xB3 0xC9 0xC9 CALLDATACOPY 0xDE SWAP12 DUP8 0xE5 0xAA 0xAF 0xAF 0xBB SUB PUSH14 0x13E9BC94E24119CEA557C149B364 PUSH20 0x6F6C634300080400330000000000000000000000 "},"methodIdentifiers":{"char(bytes1)":"69f9ad2f","strlen(bytes)":"341d5161","toAsciiString(address)":"2c6e7598"}}}}}